:100000000C9434000C9451000C9451000C94510049
:100010000C9451000C9451000C9451000C9451001C
:100020000C9451000C9451000C9451000C9451000C
:100030000C9451000C9451000C9451000C945100FC
:100040000C9451000C9451000C9451000C945100EC
:100050000C9451000C9451000C9451000C945100DC
:100060000C9451000C94510011241FBECFEFD8E026
:10007000DEBFCDBF11E0A0E0B1E0EAE0F3E002C0F6
:1000800005900D92A235B107D9F721E0A2E5B1E0C4
:1000900001C01D92AF35B207E1F70E94A0000C9499
:1000A00083010C9400008FEF8AB987E880937A006F
:1000B00080E480937C001092C50087E68093C400A2
:1000C00088E18093C10086E08093C2000895ECE748
:1000D000F0E09081987F8770892B8083EAE7F0E0D9
:1000E00080818064808380917A0086FDFCCF80913E
:1000F00078009091790008959091C00095FFFCCF11
:100100008093C6000895CF93DF93EC0103C021963E
:100110000E947C0088818111FACFDF91CF910895F0
:10012000CF93DF93C0E0D0E005C088E191E00E946A
:1001300083002196CA30D105C4F3DF91CF91089591
:100140000E945300809154018111FCCF8BB18460D7
:100150008BB98FE39FE10197F1F700C0000086E0C3
:100160000E9467006C018BB18B7F8BB98FE39FE19D
:100170000197F1F700C000008BB188608BB98FE365
:100180009FE10197F1F700C0000087E00E9467003F
:100190007C018BB1877F8BB98FE39FE10197F1F7EA
:1001A00000C000008BB180618BB98FE39FE10197A4
:1001B000F1F700C0000086E00E9467008C018BB15F
:1001C0008F7E8BB98FE39FE10197F1F700C00000AC
:1001D0008BB180648BB98FE39FE10197F1F700C089
:1001E000000087E00E946700EC018BB18F7B8BB928
:1001F0008091520190915301009709F049C00E94EB
:10020000900080E091E00E9483008BE191E00E94E9
:10021000830080E091E00E9483008BE291E00E94E5
:1002200083004AE065E571E0C6010E944E010E942C
:10023000830083E391E00E9483004AE065E571E07A
:10024000C7010E944E010E9483008DE391E00E944D
:1002500083004AE065E571E0C8010E944E010E94FA
:10026000830087E491E00E9483004AE065E571E045
:10027000CE010E944E010E94830080E091E00E9426
:10028000830084E690E090935301809352015ACF0B
:100290000197909353018093520154CFBB274A306A
:1002A00031F4992322F4BDE2909581959F4F0C94EF
:1002B0005A01BB27FB015527AA27880F991FAA1FA0
:1002C000A41710F0A41B83955051B9F7A05DAA3371
:1002D00008F0A95DA193009779F7B111B19311923C
:1002E000CB010C947301DC01FC01672F7191772322
:1002F000E1F7329704C07C916D9370836291AE17E1
:0A030000BF07C8F30895F894FFCF7B
:10030A000D0A3D3D3D3D3D3D3D3D3D3D3D3D3D3D76
:10031A003D3D3D3D3D3D3D3D0D0A000D0A4D6F649D
:10032A006F204D616E75616C0D0A00506F7420313B
:10033A003A20000D0A506F7420323A20000D0A50FC
:10034A006F7420333A20000D0A506F7420343A201B
:02035A000000A1
:00000001FF
