S011000050726F796563746F322E737265638C
S11300000C9434000C9451000C9451000C94510045
S11300100C9451000C9451000C9451000C94510018
S11300200C9451000C9451000C9451000C94510008
S11300300C9451000C9451000C9451000C945100F8
S11300400C9451000C9451000C9451000C945100E8
S11300500C9451000C9451000C9451000C945100D8
S11300600C9451000C94510011241FBECFEFD8E022
S1130070DEBFCDBF13E0A0E0B1E0ECEAF7E002C0E0
S113008005900D92A437B107D9F723E0A4E7B3E0B4
S113009001C01D92A139B207E1F70E94A5020C9498
S11300A0D4030C9400008FEF8AB987E880937A0018
S11300B080E480937C001092C50087E68093C4009E
S11300C088E18093C10086E08093C2000895ECE744
S11300D0F0E09081987F8770892B8083EAE7F0E0D5
S11300E080818064808380917A0086FDFCCF80913A
S11300F078009091790008959091C00095FFFCCF0D
S11301008093C6000895CF93DF93EC0103C021963A
S11301100E947C0088818111FACFDF91CF910895EC
S1130120CF93DF93C0E0D0E005C080E692E00E9468
S113013083002196CA30D105C4F3DF91CF9108958D
S1130140CF93DF938091C00088230CF09EC18091EF
S1130150C60090917703913009F016C19091750310
S113016091111DC09FEC980F9430A0F4805380939C
S1130170760380E091E00E94830081E08093750320
S11301801092740384E0EDE8F3E0DF011D928A9598
S1130190E9F77BC183E291E00E94830076C191304C
S11301A009F073C190ED980F9A3008F06BC0E0919C
S11301B07403E33050F491E09E0F90937403F0E0E5
S11301C0E357FC4F80830E947C008091740383304A
S11301D009F05BC18DE893E00E947903EC01853658
S11301E008F053C180917603823081F018F4813095
S11301F031F020C0833089F08430B1F01BC0CE01CF
S11302009927909382038093810314C0CE01992788
S11302109093800380937F030DC0CE019927909320
S11302207E0380937D0306C0CE01992790937C03BF
S113023080937B0380E591E00E94830080917603A4
S11302404AE063E873E090E00E9497030E94830011
S113025087E591E00E9483004AE063E873E08C2F15
S113026090E00E9497030E94830080E692E00E943F
S11302708300109277031092750310927903109201
S1130280780303C18D3009F000C180917403882381
S113029009F469C08DE893E00E947903EC01853686
S11302A008F050C080917603823081F018F48130D8
S11302B031F020C0833089F08430B1F01BC0CE010E
S11302C09927909382038093810314C0CE019927C8
S11302D09093800380937F030DC0CE019927909360
S11302E07E0380937D0306C0CE01992790937C03FF
S11302F080937B0380E591E00E94830080917603E4
S11303004AE063E873E090E00E9497030E94830050
S113031087E591E00E9483004AE063E873E08C2F54
S113032090E00E9497030E94830080E692E00E947E
S11303308300109277031092750310927903109240
S11303407803A3C088E691E00E94830083E991E0EA
S11303500E94830010927703109275031092790320
S11303601092780392C086EB91E00E94830083E9A7
S113037091E00E948300109277031092750310920B
S113038079031092780381C0813359F410927A036F
S113039082ED91E00E948300109279031092780319
S11303A074C0823361F481E080937A038EEE91E02D
S11303B00E948300109279031092780366C08333FD
S11303C009F063C080917A03813009F05EC08093A4
S11303D07703109275030E9490008EE092E00E94D1
S11303E083008DE292E00E9483008BE492E00E94FD
S11303F083004AE063E873E0809181039091820373
S11304000E9497030E9483008FE592E00E9483007C
S113041083E692E00E9483004AE063E873E08091FF
S11304207F03909180030E9497030E9483008FE5CD
S113043092E00E94830087E792E00E9483004AE0F2
S113044063E873E080917D0390917E030E9497039B
S11304500E9483008FE592E00E9483008BE892E083
S11304600E9483004AE063E873E080917B039091EB
S11304707C030E9497030E9483008FE592E00E9410
S113048083008FE992E00E948300DF91CF91089569
S11304908AEA92E00E94830085EC92E00E94830045
S11304A08AEA92E00E94830089ED92E00E94830030
S11304B04AE063E873E080918103909182030E9493
S11304C097030E94830081EE92E00E9483004AE039
S11304D063E873E080917F03909180030E94970307
S11304E00E9483008BEE92E00E9483004AE063E85E
S11304F073E080917D0390917E030E9497030E9494
S1130500830085EF92E00E9483004AE063E873E091
S113051080917B0390917C030E9497030E94830047
S11305208AEA92E00E9483008FEF92E00E948300A7
S11305308DE093E00E94830088E293E00E948300B0
S113054080E692E00E94830008950E9453000E9476
S1130550A00080917A038111A5C08BB180648BB90E
S11305608BB18F778BB98BB18C638BB984E00E948C
S113057067009C01ADECBCEC0E946A038C011695EB
S11305800795169507951695079585E00E946700CF
S11305909C01ADECBCEC0E946A037C01F694E794E8
S11305A0F694E794F694E79486E00E9467009C0131
S11305B0ADECBCEC0E946A036C01D694C794D6944B
S11305C0C794D694C79487E00E9467009C01ADEC61
S11305D0BCEC0E946A03EC01D695C795D695C795E5
S11305E0D695C7958FE39CE90197F1F700C0000009
S11305F08091780390917903009709F04DC00E948F
S113060090008AEA92E00E94830082E493E00E94D0
S113061083008AEA92E00E94830089ED92E00E94BE
S113062083004AE063E873E0C8010E9497030E94D4
S1130630830081EE92E00E9483004AE063E873E065
S1130640C7010E9497030E9483008BEE92E00E94F0
S113065083004AE063E873E0C6010E9497030E94A6
S1130660830085EF92E00E9483004AE063E873E030
S1130670CE010E9497030E9483008AEA92E00E94BE
S1130680830082E593E00E94830084E690E09093E7
S11306907903809378035BCF0197909379038093D8
S11306A0780355CF8BB18F7B8BB98BB180688BB9B5
S11306B08091780390917903892B09F048CF0E94A7
S11306C090000E94480281E090E090937903809327
S11306D078033DCFA29FB001B39FC001A39F700DCB
S11306E0811D1124911DB29F700D811D1124911D36
S11306F00895FC0188279927E89421912032E9F391
S1130700293010F02E30C8F32B3241F02D3239F459
S1130710689404C00E94A203820F911D219120536A
S11307202A30C0F31EF4909581959F4F0895BB27FE
S11307304A3031F4992322F4BDE2909581959F4F7C
S11307400C94AB037AE0979F902D879F802D910D99
S113075011240895BB27FB015527AA27880F991F49
S1130760AA1FA41710F0A41B83955051B9F7A05DDC
S1130770AA3308F0A95DA193009779F7B111B19359
S11307801192CB010C94C403DC01FC01672F71911D
S11307907723E1F7329704C07C916D937083629163
S10F07A0AE17BF07C8F30895F894FFCF0C
S11307AC0D0A496E677265736520656C206E7565FC
S11307BC766F2076616C6F722028302D31303029A1
S11307CC3A20000D0A4F7063696F6E20696E766172
S11307DC6C6964612E2053656C656363696F6E6527
S11307EC20756E20706F742028312D34293A200026
S11307FC0D0A506F7420002061637475616C697A02
S113080C61646F20613A20000D0A56616C6F72208E
S113081C696E76616C69646F2E2044656265207321
S113082C657220656E747265203020792031303009
S113083C0D0A0050726573696F6E6520456E7465A0
S113084C72207061726120636F6E74696E7561726F
S113085C2E2E2E0D0A000D0A4E6F20696E677265DE
S113086C736F206E696E67756E2076616C6F720D96
S113087C0A000D0A43616D6269616E646F20612028
S113088C4D4F444F204D414E55414C0D0A000D0A1D
S113089C43616D6269616E646F2061204D4F444FFA
S11308AC204155544F4D415449434F0D0A000D0AF4
S11308BC3D3D3D3D3D204544495441522056414C1B
S11308CC4F524553203D3D3D3D3D0D0A0053656C53
S11308DC656363696F6E6520656C20706F7420614D
S11308EC206564697461723A0D0A0031202D205020
S11308FC6F742031202861637475616C3A2000296F
S113090C0D0A0032202D20506F7420322028616390
S113091C7475616C3A200033202D20506F74203391
S113092C202861637475616C3A200034202D2050AA
S113093C6F742034202861637475616C3A20000D47
S113094C0A4F7063696F6E3A20000D0A3D3D3D3DC0
S113095C3D3D3D3D3D3D3D3D3D3D3D3D3D3D3D3DB7
S113096C3D3D0D0A000D0A4D4F444F204155544F47
S113097C4D415449434F0D0A00506F7420313A20B5
S113098C000D0A506F7420323A20000D0A506F7417
S113099C20333A20000D0A506F7420343A20000D95
S11309AC0A436F6D616E646F733A0D0A0031202D2A
S11309BC20566F6C7665722061204D6F646F204DEC
S11309CC616E75616C0D0A0033202D2045646974C9
S11309DC61722076616C6F7220646520506F740DA7
S11309EC0A000D0A4D6F646F204D616E75616C0DBC
S11309FC0A000D0A507265737320322070617261A3
S1130A0C2063616D62696172206465206D6F646F2F
S1070A1C0D0A0000BB
S9030000FC
