:100000000C9434000C9451000C9451000C94510049
:100010000C9451000C9451000C9451000C9451001C
:100020000C9451000C9451000C9451000C9451000C
:100030000C9451000C9451000C9451000C945100FC
:100040000C9451000C9451000C9451000C945100EC
:100050000C9451000C9451000C9451000C945100DC
:100060000C9451000C94510011241FBECFEFD8E026
:10007000DEBFCDBF13E0A0E0B1E0E0E2F8E002C0F7
:1000800005900D92A039B107D9F723E0A0E9B3E0BC
:1000900001C01D92AD3AB207E1F70E94C7020C946D
:1000A0000E040C9400008FEF8AB987E880937A00E1
:1000B00080E480937C001092C50087E68093C400A2
:1000C00088E18093C10086E08093C2000895ECE748
:1000D000F0E09081987F8770892B8083EAE7F0E0D9
:1000E00080818064808380917A0086FDFCCF80913E
:1000F00078009091790008959091C00095FFFCCF11
:100100008093C6000895CF93DF93EC0103C021963E
:100110000E947C0088818111FACFDF91CF910895F0
:10012000CF93DF93C0E0D0E005C08DE792E00E945E
:1001300083002196CA30D105C4F3DF91CF91089591
:10014000CF93DF938091C00088230CF0C0C18091D1
:10015000C60090919303913009F038C190919103BA
:1001600091111DC09FEC980F9430A0F480538093A0
:10017000920380E091E00E94830081E080939103EC
:100180001092900384E0E9EAF3E0DF011D928A9582
:10019000E9F79DC183E291E00E94830098C191300C
:1001A00009F095C190ED980F9A3008F07CC0E0916D
:1001B0009003E33050F491E09E0F90939003F0E0B1
:1001C000E755FC4F80830E947C0080919003833030
:1001D00009F07DC189EA93E00E94B303EC01853602
:1001E00008F050C080919203823081F018F4813081
:1001F00031F020C0833089F08430B1F01BC0CE01D3
:10020000992790939E0380939D0314C0CE01992754
:1002100090939C0380939B030DC0CE0199279093EC
:100220009A038093990306C0CE019927909398036F
:100230008093970380E591E00E9483008091920370
:100240004AE06FE973E090E00E94D1030E948300CE
:1002500087E591E00E9483004AE06FE973E08C2F0C
:1002600090E00E94D1030E9483008DE792E00E94FB
:1002700083001092930310929103109295031092B1
:10028000940325C188E691E00E94830080E991E013
:100290000E94830010929303109291031092950391
:1002A0001092940314C18D3009F07FC080919003A7
:1002B000882309F469C089EA93E00E94B303EC0142
:1002C000853608F050C080919203823081F018F496
:1002D000813031F020C0833089F08430B1F01BC010
:1002E000CE01992790939E0380939D0314C0CE0165
:1002F000992790939C0380939B030DC0CE0199276F
:1003000090939A038093990306C0CE019927909306
:1003100098038093970380E591E00E948300809189
:1003200092034AE06FE973E090E00E94D1030E94DB
:10033000830087E591E00E9483004AE06FE973E063
:100340008C2F90E00E94D1030E9483008DE792E001
:100350000E948300109293031092910310929503D0
:1003600010929403B4C088E691E00E94830080E973
:1003700091E00E94830010929303109291031092D7
:10038000950310929403A3C08DEB91E00E9483002B
:1003900080E991E00E9483001092930310929103F0
:1003A000109295031092940392C089ED91E00E94FF
:1003B000830080E991E00E948300109293031092E1
:1003C0009103109295031092940381C0813359F4E4
:1003D000109296038FEE91E00E9483001092950395
:1003E0001092940374C0823361F481E08093960389
:1003F0008BE092E00E948300109295031092940388
:1004000066C0833309F063C080919603813009F0A0
:100410005EC080939303109291030E9490008BE240
:1004200092E00E9483008AE492E00E94830088E6C2
:1004300092E00E9483004AE06FE973E080919D039F
:1004400090919E030E94D1030E9483008CE792E06A
:100450000E94830080E892E00E9483004AE06FE9F6
:1004600073E080919B0390919C030E94D1030E94B2
:1004700083008CE792E00E94830084E992E00E946E
:1004800083004AE06FE973E08091990390919A03A9
:100490000E94D1030E9483008CE792E00E948300B7
:1004A00088EA92E00E9483004AE06FE973E080915D
:1004B0009703909198030E94D1030E9483008CE7D8
:1004C00092E00E9483008CEB92E00E948300DF9117
:1004D000CF91089587EC92E00E94830082EE92E033
:1004E0000E94830087EC92E00E94830086EF92E0F6
:1004F0000E9483004AE06FE973E080919D03909130
:100500009E030E94D1030E9483008EEF92E00E941E
:1005100083004AE06FE973E080919B0390919C0314
:100520000E94D1030E94830088E093E00E94830030
:100530004AE06FE973E08091990390919A030E94D9
:10054000D1030E94830082E193E00E9483004AE08D
:100550006FE973E080919703909198030E94D10313
:100560000E94830087EC92E00E9483008CE193E07C
:100570000E9483008AE293E00E94830085E493E076
:100580000E9483008DE792E00E94830008950E94FC
:1005900053000E94A000809196038111BDC08BB1D1
:1005A00080648BB98BB18F778BB98BB18C638BB92E
:1005B00084E00E9467009C01ADECBCEC0E94A403A7
:1005C00096958795969587959695879590939E0392
:1005D00080939D0385E00E9467009C01ADECBCEC1C
:1005E0000E94A403969587959695879596958795ED
:1005F00090939C0380939B0386E00E9467009C017C
:10060000ADECBCEC0E94A4039695879596958795D2
:100610009695879590939A038093990387E00E941B
:1006200067009C01ADECBCEC0E94A40396958795F5
:1006300096958795969587959093980380939703C1
:100640008FE39CE90197F1F700C0000080919403CB
:1006500090919503009709F059C00E94900087EC93
:1006600092E00E9483008FE593E00E94830087EC74
:1006700092E00E94830086EF92E00E9483004AE0AD
:100680006FE973E080919D0390919E030E94D103D6
:100690000E9483008EEF92E00E9483004AE06FE99F
:1006A00073E080919B0390919C030E94D1030E9470
:1006B000830088E093E00E9483004AE06FE973E0E2
:1006C0008091990390919A030E94D1030E94830024
:1006D00082E193E00E9483004AE06FE973E0809139
:1006E0009703909198030E94D1030E94830087ECA6
:1006F00092E00E9483008FE693E00E94830084E6EC
:1007000090E0909395038093940343CF0197909347
:100710009503809394033DCF8BB18F7B8BB98BB1C5
:1007200080688BB98091940390919503892B09F08F
:1007300030CF0E9490000E946A0281E090E0909386
:1007400095038093940325CFA29FB001B39FC0016E
:10075000A39F700D811D1124911DB29F700D811DED
:100760001124911D0895FC0188279927E89421916F
:100770002032E9F3293010F02E30C8F32B3241F04B
:100780002D3239F4689404C00E94DC03820F911D5D
:10079000219120532A30C0F31EF4909581959F4FEC
:1007A0000895BB274A3031F4992322F4BDE2909595
:1007B00081959F4F0C94E5037AE0979F902D879F3A
:1007C000802D910D11240895BB27FB015527AA27E1
:1007D000880F991FAA1FA41710F0A41B83955051CE
:1007E000B9F7A05DAA3308F0A95DA193009779F746
:1007F000B111B1931192CB010C94FE03DC01FC0109
:10080000672F71917723E1F7329704C07C916D9344
:1008100070836291AE17BF07C8F30895F894FFCFB5
:100820000D0A496E677265736520656C206E75658B
:10083000766F2076616C6F722028302D3130302930
:100840003A20000D0A4F7063696F6E20696E766101
:100850006C6964612E2053656C656363696F6E65B6
:1008600020756E20706F742028312D34293A2000B5
:100870000D0A506F7420002061637475616C697A91
:1008800061646F20613A20000D0A4552524F523A7E
:100890002056616C6F7220646562652073657220FA
:1008A000656E74726520302079203130300D0A0079
:1008B00050726573696F6E65206375616C717569DF
:1008C0006572207465636C61207061726120636F72
:1008D0006E74696E7561722E2E2E0D0A000D0A4E11
:1008E0006F20696E677265736F206E696E67756ED3
:1008F0002076616C6F720D0A000D0A436F6D616E98
:10090000646F2063616E63656C61646F0D0A000D36
:100910000A43616D6269616E646F2061204D4F44CE
:100920004F204D414E55414C0D0A000D0A43616D5B
:100930006269616E646F2061204D4F444F204155C4
:10094000544F4D415449434F0D0A000D0A3D3D3D62
:100950003D3D204544495441522056414C4F52455B
:1009600053203D3D3D3D3D0D0A0053656C6563637D
:10097000696F6E6520656C20706F742061206564FE
:10098000697461723A0D0A0031202D20506F742075
:1009900031202861637475616C3A2000290D0A00CA
:1009A00032202D20506F74203220286163747561CD
:1009B0006C3A200033202D20506F742033202861A2
:1009C000637475616C3A200034202D20506F7420C0
:1009D00034202861637475616C3A20000D0A4F70F1
:1009E00063696F6E3A20000D0A3D3D3D3D3D3D3D42
:1009F0003D3D3D3D3D3D3D3D3D3D3D3D3D3D3D0D57
:100A00000A000D0A4D4F444F204155544F4D41545B
:100A100049434F0D0A00506F7420313A20000D0AEF
:100A2000506F7420323A20000D0A506F7420333A10
:100A300020000D0A506F7420343A20000D0A436FD5
:100A40006D616E646F733A0D0A0031202D20566F70
:100A50006C7665722061204D6F646F204D616E75FC
:100A6000616C0D0A0033202D204564697461722089
:100A700076616C6F7220646520506F740D0A000DF2
:100A80000A4D6F646F204D616E75616C0D0A000D2B
:100A90000A50726573732032207061726120636145
:100AA0006D62696172206465206D6F646F0D0A006C
:00000001FF
