:100000000C9434000C9446000C9446000C9446006A
:100010000C9446000C9446000C9446000C94460048
:100020000C9446000C9446000C9446000C9411026B
:100030000C9446000C9446000C9446000C94460028
:100040000C9446000C9446000C942B020C94460031
:100050000C9446000C9446000C9446000C94460008
:100060000C9446000C94460011241FBECFEFD8E03C
:10007000DEBFCDBF21E0A0E0B1E001C01D92A234FF
:10008000B207E1F70E94FA000C9413030C940000ED
:100090008FEF8AB987E880937A008FE39CE9019714
:1000A000F1F700C0000080E480937C001092C5004E
:1000B00087E68093C400E1ECF0E088E1808386E08D
:1000C0008093C20087B18F6087B988B1807F88B97B
:1000D0008DE08093810088E09DE390938900809378
:1000E000880082E080936F00789488E98083089587
:1000F000ECE7F0E09081987F8770892B8083EAE7B6
:10010000F0E080818064808380917A0086FDFCCF5E
:10011000809178009091790008959091C00095FFAA
:10012000FCCF8093C6000895CF93DF93EC0103C00A
:1001300021960E948D0088818111FACFDF91CF91A5
:100140000895CF92DF92EF92FF920F931F93CF9378
:10015000DF93CDB7DEB760970FB6F894DEBF0FBE62
:10016000CDBF6B017A0189014AE0BE016F5F7F4F0D
:100170000E94D602CE0101960E9494008AE00E945D
:100180008D004AE0BE016F5F7F4FC6010E94D6021C
:10019000CE0101960E9494008AE00E948D004AE000
:1001A000BE016F5F7F4FC7010E94D602CE0101964C
:1001B0000E9494008AE00E948D004AE0BE016F5FB9
:1001C0007F4FC8010E94D602CE0101960E94940082
:1001D0008AE00E948D0060960FB6F894DEBF0FBED5
:1001E000CDBFDF91CF911F910F91FF90EF90DF90E6
:1001F000CF90089510923F0110923E010E94480056
:1002000080910401811163C08BB180648BB98BB183
:100210008F778BB984E00E947800909310018093CF
:100220000F0185E00E9478009093080180930701F8
:1002300086E00E94780090930A018093090187E08C
:100240000E947800AC0190933F0180933E01209181
:100250000F0130911001ADECBCEC0E94A902969503
:100260008795969587959695879590930E0180939F
:100270000D0120910701309108010E94A902969575
:100280008795969587959695879590930C01809381
:100290000B012091090130910A010E94A902969553
:1002A0008795969587959695879590933901809334
:1002B00038019A010E94A90296958795969587958F
:1002C0009695879590933D0180933C0108C08130BD
:1002D00031F48BB18F7B8BB98BB180688BB98091F6
:1002E00002018823A1F01092020120913C0130917B
:1002F0003D01409138015091390160910B0170919D
:100300000C0180910D0190910E010E94A10040917D
:100310000D0150910E018FE0849F9001859F300D5B
:100320001124309306012093050140910B01509157
:100330000C01849F9001859F300D11243093410161
:10034000209340014091380150913901849F9001E0
:10035000859F300D11243093370120933601409151
:100360003C0150913D01849F9001859F300D1124E7
:1003700030933B0120933A0188B1816088B980E0D5
:1003800090E005C025E02A95F1F700000196209144
:1003900005013091060182179307A0F388B18E7F83
:1003A00088B988B1826088B980E090E005C025E016
:1003B0002A95F1F70000019620914001309141010A
:1003C00082179307A0F388B18D7F88B988B18460C4
:1003D00088B980E090E005C025E02A95F1F700009B
:1003E0000196209136013091370182179307A0F3CF
:1003F00088B18B7F88B988B1886088B980E090E047
:1004000005C025E02A95F1F70000019620913A01F8
:1004100030913B0182179307A0F388B1877F88B999
:10042000EFCE1F920F920FB60F9211248F938091EF
:1004300003018F5F80930301809103018A3028F0CC
:100440001092030181E0809302018F910F900FBE03
:100450000F901F9018951F920F920FB60F921124B4
:100460000F931F932F933F934F935F936F937F93BC
:100470008F939F93AF93BF93CF93EF93FF9380910D
:10048000C600803209F041C0E0910101EE2309F479
:100490004CC0F0E0EF5EFE4F1082C09100010C2FC7
:1004A00010E081E191E00E94B802F801EF5CFE4F9C
:1004B0008083CF5FC093000110920101C530A8F185
:1004C00080913101809304018823E1F08130D1F4DF
:1004D000E1E3F1E0818190E090930E0180930D01C2
:1004E000828190E090930C0180930B01838190E0D6
:1004F0009093390180933801848190E090933D017D
:1005000080933C011092000110C090ED980F9A303A
:1005100060F4909101019F3140F4E92FF0E0EF5E2B
:10052000FE4F80839F5F90930101FF91EF91CF91E8
:10053000BF91AF919F918F917F916F915F914F91FB
:100540003F912F911F910F910F900FBE0F901F9011
:100550001895A29FB001B39FC001A39F700D811D8C
:100560001124911DB29F700D811D1124911D0895BC
:10057000FC0188279927E89421912032E9F329305A
:1005800010F02E30C8F32B3241F02D3239F468943C
:1005900004C00E94E102820F911D219120532A3054
:1005A000C0F31EF4909581959F4F0895BB274A3064
:1005B00031F4992322F4BDE2909581959F4F0C94DC
:1005C000EA027AE0979F902D879F802D910D11244C
:1005D0000895BB27FB015527AA27880F991FAA1F3B
:1005E000A41710F0A41B83955051B9F7A05DAA334E
:1005F00008F0A95DA193009779F7B111B193119219
:10060000CB010C940303DC01FC01672F719177236C
:10061000E1F7329704C07C916D9370836291AE17BD
:0A062000BF07C8F30895F894FFCF58
:00000001FF
